{
  "_format": "hh-sol-artifact-1",
  "contractName": "Subscribe",
  "sourceName": "contracts/Subscribe.sol",
  "abi": [
    {
      "anonymous": false,
      "inputs": [
        {
          "indexed": true,
          "internalType": "address",
          "name": "previousOwner",
          "type": "address"
        },
        {
          "indexed": true,
          "internalType": "address",
          "name": "newOwner",
          "type": "address"
        }
      ],
      "name": "OwnershipTransferred",
      "type": "event"
    },
    {
      "anonymous": false,
      "inputs": [
        {
          "indexed": false,
          "internalType": "address",
          "name": "owner",
          "type": "address"
        },
        {
          "components": [
            {
              "internalType": "bool",
              "name": "active",
              "type": "bool"
            },
            {
              "internalType": "string",
              "name": "BasketID",
              "type": "string"
            },
            {
              "internalType": "address[]",
              "name": "tokens",
              "type": "address[]"
            },
            {
              "internalType": "uint256[]",
              "name": "weights",
              "type": "uint256[]"
            },
            {
              "internalType": "address",
              "name": "basketOwner",
              "type": "address"
            }
          ],
          "indexed": false,
          "internalType": "struct Baskets.Basket",
          "name": "basket",
          "type": "tuple"
        }
      ],
      "name": "basketCreated",
      "type": "event"
    },
    {
      "anonymous": false,
      "inputs": [
        {
          "components": [
            {
              "internalType": "uint256",
              "name": "callTime",
              "type": "uint256"
            },
            {
              "internalType": "uint256",
              "name": "transactionAmount",
              "type": "uint256"
            },
            {
              "internalType": "address",
              "name": "user",
              "type": "address"
            },
            {
              "internalType": "address",
              "name": "userCoin",
              "type": "address"
            },
            {
              "internalType": "string",
              "name": "basketID",
              "type": "string"
            },
            {
              "internalType": "string",
              "name": "transactionType",
              "type": "string"
            }
          ],
          "indexed": false,
          "internalType": "struct Subscribe.Transaction",
          "name": "",
          "type": "tuple"
        }
      ],
      "name": "log",
      "type": "event"
    },
    {
      "inputs": [
        {
          "internalType": "string",
          "name": "_basketID",
          "type": "string"
        },
        {
          "internalType": "uint256",
          "name": "_amount",
          "type": "uint256"
        }
      ],
      "name": "basketToComponent",
      "outputs": [
        {
          "internalType": "address[]",
          "name": "",
          "type": "address[]"
        },
        {
          "internalType": "uint256[]",
          "name": "",
          "type": "uint256[]"
        }
      ],
      "stateMutability": "view",
      "type": "function"
    },
    {
      "inputs": [
        {
          "internalType": "address[]",
          "name": "tokens",
          "type": "address[]"
        },
        {
          "internalType": "uint256[]",
          "name": "weights",
          "type": "uint256[]"
        },
        {
          "internalType": "string",
          "name": "id",
          "type": "string"
        }
      ],
      "name": "createBasket",
      "outputs": [],
      "stateMutability": "nonpayable",
      "type": "function"
    },
    {
      "inputs": [
        {
          "internalType": "string",
          "name": "_basketID",
          "type": "string"
        },
        {
          "internalType": "address",
          "name": "_tokenIn",
          "type": "address"
        },
        {
          "internalType": "uint256",
          "name": "_amount",
          "type": "uint256"
        }
      ],
      "name": "deposit",
      "outputs": [],
      "stateMutability": "payable",
      "type": "function"
    },
    {
      "inputs": [
        {
          "internalType": "string",
          "name": "_basketID",
          "type": "string"
        },
        {
          "internalType": "address",
          "name": "_tokenOut",
          "type": "address"
        }
      ],
      "name": "exit",
      "outputs": [],
      "stateMutability": "nonpayable",
      "type": "function"
    },
    {
      "inputs": [
        {
          "internalType": "address",
          "name": "_pair",
          "type": "address"
        }
      ],
      "name": "getPriceETH",
      "outputs": [
        {
          "internalType": "uint256",
          "name": "",
          "type": "uint256"
        }
      ],
      "stateMutability": "view",
      "type": "function"
    },
    {
      "inputs": [
        {
          "internalType": "address",
          "name": "user",
          "type": "address"
        },
        {
          "internalType": "string",
          "name": "_basketID",
          "type": "string"
        },
        {
          "internalType": "address",
          "name": "_token",
          "type": "address"
        }
      ],
      "name": "getUserHoldingForToken",
      "outputs": [
        {
          "internalType": "uint256",
          "name": "",
          "type": "uint256"
        }
      ],
      "stateMutability": "view",
      "type": "function"
    },
    {
      "inputs": [],
      "name": "owner",
      "outputs": [
        {
          "internalType": "address",
          "name": "",
          "type": "address"
        }
      ],
      "stateMutability": "view",
      "type": "function"
    },
    {
      "inputs": [],
      "name": "renounceOwnership",
      "outputs": [],
      "stateMutability": "nonpayable",
      "type": "function"
    },
    {
      "inputs": [
        {
          "internalType": "string",
          "name": "_coin",
          "type": "string"
        },
        {
          "internalType": "address payable",
          "name": "_to",
          "type": "address"
        },
        {
          "internalType": "uint256",
          "name": "_amount",
          "type": "uint256"
        }
      ],
      "name": "sendFee",
      "outputs": [],
      "stateMutability": "payable",
      "type": "function"
    },
    {
      "inputs": [
        {
          "internalType": "address",
          "name": "_newOwner",
          "type": "address"
        },
        {
          "internalType": "string",
          "name": "basketId",
          "type": "string"
        }
      ],
      "name": "transferBasketOwnership",
      "outputs": [],
      "stateMutability": "nonpayable",
      "type": "function"
    },
    {
      "inputs": [
        {
          "internalType": "address",
          "name": "newOwner",
          "type": "address"
        }
      ],
      "name": "transferOwnership",
      "outputs": [],
      "stateMutability": "nonpayable",
      "type": "function"
    },
    {
      "inputs": [],
      "name": "uniswapRouter",
      "outputs": [
        {
          "internalType": "contract IUniswapRouter",
          "name": "",
          "type": "address"
        }
      ],
      "stateMutability": "view",
      "type": "function"
    },
    {
      "inputs": [
        {
          "internalType": "address",
          "name": "",
          "type": "address"
        },
        {
          "internalType": "string",
          "name": "",
          "type": "string"
        },
        {
          "internalType": "address",
          "name": "",
          "type": "address"
        }
      ],
      "name": "userToHolding",
      "outputs": [
        {
          "internalType": "uint256",
          "name": "",
          "type": "uint256"
        }
      ],
      "stateMutability": "view",
      "type": "function"
    },
    {
      "inputs": [
        {
          "internalType": "address",
          "name": "",
          "type": "address"
        },
        {
          "internalType": "uint256",
          "name": "",
          "type": "uint256"
        }
      ],
      "name": "userToTransaction",
      "outputs": [
        {
          "internalType": "uint256",
          "name": "callTime",
          "type": "uint256"
        },
        {
          "internalType": "uint256",
          "name": "transactionAmount",
          "type": "uint256"
        },
        {
          "internalType": "address",
          "name": "user",
          "type": "address"
        },
        {
          "internalType": "address",
          "name": "userCoin",
          "type": "address"
        },
        {
          "internalType": "string",
          "name": "basketID",
          "type": "string"
        },
        {
          "internalType": "string",
          "name": "transactionType",
          "type": "string"
        }
      ],
      "stateMutability": "view",
      "type": "function"
    }
  ],
  "bytecode": "0x60806040523480156200001157600080fd5b5062000032620000266200003860201b60201c565b6200004060201b60201c565b62000104565b600033905090565b60008060009054906101000a900473ffffffffffffffffffffffffffffffffffffffff169050816000806101000a81548173ffffffffffffffffffffffffffffffffffffffff021916908373ffffffffffffffffffffffffffffffffffffffff1602179055508173ffffffffffffffffffffffffffffffffffffffff168173ffffffffffffffffffffffffffffffffffffffff167f8be0079c531659141344cd1fd0a4f28419497f9722a3daafe3b4186f6b6457e060405160405180910390a35050565b61498380620001146000396000f3fe6080604052600436106100dd5760003560e01c806396344e0d1161007f578063de6505d011610059578063de6505d014610282578063e5ec9db9146102bf578063f029e300146102fc578063f2fde38b14610339576100dd565b806396344e0d146102145780639b1d70c514610230578063d85ab8d914610259576100dd565b8063715018a6116100bb578063715018a614610169578063735de9f7146101805780638766294e146101ab5780638da5cb5b146101e9576100dd565b80632a48ac9a146100e25780633c20b8c9146100fe57806362e69fab14610140575b600080fd5b6100fc60048036038101906100f79190613382565b610362565b005b34801561010a57600080fd5b50610125600480360381019061012091906131cb565b610d6c565b60405161013796959493929190614306565b60405180910390f35b34801561014c57600080fd5b50610167600480360381019061016291906132c7565b610f15565b005b34801561017557600080fd5b5061017e61165b565b005b34801561018c57600080fd5b506101956116e3565b6040516101a29190614092565b60405180910390f35b3480156101b757600080fd5b506101d260048036038101906101cd91906133e9565b6116fb565b6040516101e092919061405b565b60405180910390f35b3480156101f557600080fd5b506101fe61185f565b60405161020b9190613f5e565b60405180910390f35b61022e6004803603810190610229919061331b565b611888565b005b34801561023c57600080fd5b5061025760048036038101906102529190613110565b611a5e565b005b34801561026557600080fd5b50610280600480360381019061027b9190613207565b611bcb565b005b34801561028e57600080fd5b506102a960048036038101906102a49190613164565b612046565b6040516102b691906142eb565b60405180910390f35b3480156102cb57600080fd5b506102e660048036038101906102e191906130e7565b61208e565b6040516102f391906142eb565b60405180910390f35b34801561030857600080fd5b50610323600480360381019061031e9190613164565b612124565b60405161033091906142eb565b60405180910390f35b34801561034557600080fd5b50610360600480360381019061035b91906130e7565b6121c8565b005b60006040518060c00160405280428152602001600081526020013373ffffffffffffffffffffffffffffffffffffffff1681526020018473ffffffffffffffffffffffffffffffffffffffff1681526020018581526020016040518060400160405280600781526020017f6465706f736974000000000000000000000000000000000000000000000000008152508152509050600660003373ffffffffffffffffffffffffffffffffffffffff1673ffffffffffffffffffffffffffffffffffffffff168152602001908152602001600020819080600181540180825580915050600190039060005260206000209060060201600090919091909150600082015181600001556020820151816001015560408201518160020160006101000a81548173ffffffffffffffffffffffffffffffffffffffff021916908373ffffffffffffffffffffffffffffffffffffffff16021790555060608201518160030160006101000a81548173ffffffffffffffffffffffffffffffffffffffff021916908373ffffffffffffffffffffffffffffffffffffffff160217905550608082015181600401908051906020019061051c929190612cff565b5060a0820151816005019080519060200190610539929190612cff565b5050506000610547856122c0565b6080015190506000606460018561055e9190614597565b6105689190614566565b8461057391906145f1565b905060008061058288846116fb565b91509150600073ffffffffffffffffffffffffffffffffffffffff168773ffffffffffffffffffffffffffffffffffffffff1614156109c0578534146105fd576040517f08c379a00000000000000000000000000000000000000000000000000000000081526004016105f49061416d565b60405180910390fd5b60003411610640576040517f08c379a00000000000000000000000000000000000000000000000000000000081526004016106379061424d565b60405180910390fd5b60005b82518110156109ba5760006106d884838151811061068a577f4e487b7100000000000000000000000000000000000000000000000000000000600052603260045260246000fd5b60200260200101518484815181106106cb577f4e487b7100000000000000000000000000000000000000000000000000000000600052603260045260246000fd5b602002602001015161254f565b90506000600760003373ffffffffffffffffffffffffffffffffffffffff1673ffffffffffffffffffffffffffffffffffffffff1681526020019081526020016000208b6040516107299190613f1d565b90815260200160405180910390206000868581518110610772577f4e487b7100000000000000000000000000000000000000000000000000000000600052603260045260246000fd5b602002602001015173ffffffffffffffffffffffffffffffffffffffff1673ffffffffffffffffffffffffffffffffffffffff16815260200190815260200160002054116108b757600860003373ffffffffffffffffffffffffffffffffffffffff1673ffffffffffffffffffffffffffffffffffffffff1681526020019081526020016000208a6040516108079190613f1d565b908152602001604051809103902084838151811061084e577f4e487b7100000000000000000000000000000000000000000000000000000000600052603260045260246000fd5b60200260200101519080600181540180825580915050600190039060005260206000200160009091909190916101000a81548173ffffffffffffffffffffffffffffffffffffffff021916908373ffffffffffffffffffffffffffffffffffffffff1602179055505b80600760003373ffffffffffffffffffffffffffffffffffffffff1673ffffffffffffffffffffffffffffffffffffffff1681526020019081526020016000208b6040516109059190613f1d565b9081526020016040518091039020600086858151811061094e577f4e487b7100000000000000000000000000000000000000000000000000000000600052603260045260246000fd5b602002602001015173ffffffffffffffffffffffffffffffffffffffff1673ffffffffffffffffffffffffffffffffffffffff168152602001908152602001600020600082825461099f9190614510565b925050819055505080806109b29061477c565b915050610643565b50610d2b565b60005b8251811015610d29576000610a5989858481518110610a0b577f4e487b7100000000000000000000000000000000000000000000000000000000600052603260045260246000fd5b6020026020010151858581518110610a4c577f4e487b7100000000000000000000000000000000000000000000000000000000600052603260045260246000fd5b60200260200101516126d7565b90506000600760003373ffffffffffffffffffffffffffffffffffffffff1673ffffffffffffffffffffffffffffffffffffffff1681526020019081526020016000208b604051610aaa9190613f1d565b90815260200160405180910390206000868581518110610af3577f4e487b7100000000000000000000000000000000000000000000000000000000600052603260045260246000fd5b602002602001015173ffffffffffffffffffffffffffffffffffffffff1673ffffffffffffffffffffffffffffffffffffffff1681526020019081526020016000205411610c3857600860003373ffffffffffffffffffffffffffffffffffffffff1673ffffffffffffffffffffffffffffffffffffffff1681526020019081526020016000208a604051610b889190613f1d565b9081526020016040518091039020848381518110610bcf577f4e487b7100000000000000000000000000000000000000000000000000000000600052603260045260246000fd5b60200260200101519080600181540180825580915050600190039060005260206000200160009091909190916101000a81548173ffffffffffffffffffffffffffffffffffffffff021916908373ffffffffffffffffffffffffffffffffffffffff1602179055505b80600760003373ffffffffffffffffffffffffffffffffffffffff1673ffffffffffffffffffffffffffffffffffffffff1681526020019081526020016000208b604051610c869190613f1d565b90815260200160405180910390206000868581518110610ccf577f4e487b7100000000000000000000000000000000000000000000000000000000600052603260045260246000fd5b602002602001015173ffffffffffffffffffffffffffffffffffffffff1673ffffffffffffffffffffffffffffffffffffffff16815260200190815260200160002081905550508080610d219061477c565b9150506109c3565b505b7f1e8b551154c20adb3795f960c15448053ae542ceb6cd9306377b7c1e5a4bfcdd85604051610d5a91906142c9565b60405180910390a15050505050505050565b60066020528160005260406000208181548110610d8857600080fd5b9060005260206000209060060201600091509150508060000154908060010154908060020160009054906101000a900473ffffffffffffffffffffffffffffffffffffffff16908060030160009054906101000a900473ffffffffffffffffffffffffffffffffffffffff1690806004018054610e049061474a565b80601f0160208091040260200160405190810160405280929190818152602001828054610e309061474a565b8015610e7d5780601f10610e5257610100808354040283529160200191610e7d565b820191906000526020600020905b815481529060010190602001808311610e6057829003601f168201915b505050505090806005018054610e929061474a565b80601f0160208091040260200160405190810160405280929190818152602001828054610ebe9061474a565b8015610f0b5780601f10610ee057610100808354040283529160200191610f0b565b820191906000526020600020905b815481529060010190602001808311610eee57829003601f168201915b5050505050905086565b604051602001610f2490613f34565b6040516020818303038152906040528051906020012081604051602001610f4b9190613eeb565b604051602081830303815290604052805190602001201415610fa2576040517f08c379a0000000000000000000000000000000000000000000000000000000008152600401610f999061412d565b60405180910390fd5b60006040518060c00160405280428152602001600081526020013373ffffffffffffffffffffffffffffffffffffffff1681526020018373ffffffffffffffffffffffffffffffffffffffff1681526020018481526020016040518060400160405280600481526020017f65786974000000000000000000000000000000000000000000000000000000008152508152509050600660003373ffffffffffffffffffffffffffffffffffffffff1673ffffffffffffffffffffffffffffffffffffffff168152602001908152602001600020819080600181540180825580915050600190039060005260206000209060060201600090919091909150600082015181600001556020820151816001015560408201518160020160006101000a81548173ffffffffffffffffffffffffffffffffffffffff021916908373ffffffffffffffffffffffffffffffffffffffff16021790555060608201518160030160006101000a81548173ffffffffffffffffffffffffffffffffffffffff021916908373ffffffffffffffffffffffffffffffffffffffff160217905550608082015181600401908051906020019061115c929190612cff565b5060a0820151816005019080519060200190611179929190612cff565b5050506000600860003373ffffffffffffffffffffffffffffffffffffffff1673ffffffffffffffffffffffffffffffffffffffff168152602001908152602001600020846040516111cb9190613f1d565b908152602001604051809103902080548060200260200160405190810160405280929190818152602001828054801561125957602002820191906000526020600020905b8160009054906101000a900473ffffffffffffffffffffffffffffffffffffffff1673ffffffffffffffffffffffffffffffffffffffff168152602001906001019080831161120f575b5050505050905060005b815181101561161d5760006113918383815181106112aa577f4e487b7100000000000000000000000000000000000000000000000000000000600052603260045260246000fd5b602002602001015186600760003373ffffffffffffffffffffffffffffffffffffffff1673ffffffffffffffffffffffffffffffffffffffff168152602001908152602001600020896040516113009190613f1d565b90815260200160405180910390206000878781518110611349577f4e487b7100000000000000000000000000000000000000000000000000000000600052603260045260246000fd5b602002602001015173ffffffffffffffffffffffffffffffffffffffff1673ffffffffffffffffffffffffffffffffffffffff168152602001908152602001600020546126d7565b90506000600760003373ffffffffffffffffffffffffffffffffffffffff1673ffffffffffffffffffffffffffffffffffffffff168152602001908152602001600020876040516113e29190613f1d565b9081526020016040518091039020600085858151811061142b577f4e487b7100000000000000000000000000000000000000000000000000000000600052603260045260246000fd5b602002602001015173ffffffffffffffffffffffffffffffffffffffff1673ffffffffffffffffffffffffffffffffffffffff16815260200190815260200160002081905550600860003373ffffffffffffffffffffffffffffffffffffffff1673ffffffffffffffffffffffffffffffffffffffff168152602001908152602001600020866040516114be9190613f1d565b9081526020016040518091039020600960003373ffffffffffffffffffffffffffffffffffffffff1673ffffffffffffffffffffffffffffffffffffffff168152602001908152602001600020876040516115199190613f1d565b90815260200160405180910390206000858581518110611562577f4e487b7100000000000000000000000000000000000000000000000000000000600052603260045260246000fd5b602002602001015173ffffffffffffffffffffffffffffffffffffffff1673ffffffffffffffffffffffffffffffffffffffff16815260200190815260200160002054815481106115dc577f4e487b7100000000000000000000000000000000000000000000000000000000600052603260045260246000fd5b9060005260206000200160006101000a81549073ffffffffffffffffffffffffffffffffffffffff02191690555080806116159061477c565b915050611263565b507f1e8b551154c20adb3795f960c15448053ae542ceb6cd9306377b7c1e5a4bfcdd8260405161164d91906142c9565b60405180910390a150505050565b611663612986565b73ffffffffffffffffffffffffffffffffffffffff1661168161185f565b73ffffffffffffffffffffffffffffffffffffffff16146116d7576040517f08c379a00000000000000000000000000000000000000000000000000000000081526004016116ce906141ad565b60405180910390fd5b6116e1600061298e565b565b73e592427a0aece92de3edee1f18e0157c0586156481565b6060806000611709856122c0565b90506000816040015190506000826060015190506000825167ffffffffffffffff811115611760577f4e487b7100000000000000000000000000000000000000000000000000000000600052604160045260246000fd5b60405190808252806020026020018201604052801561178e5781602001602082028036833780820191505090505b50905060005b835181101561184d5760648382815181106117d8577f4e487b7100000000000000000000000000000000000000000000000000000000600052603260045260246000fd5b6020026020010151896117eb9190614597565b6117f59190614566565b82828151811061182e577f4e487b7100000000000000000000000000000000000000000000000000000000600052603260045260246000fd5b60200260200101818152505080806118459061477c565b915050611794565b50828195509550505050509250929050565b60008060009054906101000a900473ffffffffffffffffffffffffffffffffffffffff16905090565b60405160200161189790613f34565b60405160208183030381529060405280519060200120836040516020016118be9190613f1d565b60405160208183030381529060405280519060200120141561198c5760008273ffffffffffffffffffffffffffffffffffffffff168260405161190090613f49565b60006040518083038185875af1925050503d806000811461193d576040519150601f19603f3d011682016040523d82523d6000602084013e611942565b606091505b5050905080611986576040517f08c379a000000000000000000000000000000000000000000000000000000000815260040161197d9061410d565b60405180910390fd5b50611a59565b60048360405161199c9190613f1d565b908152602001604051809103902060009054906101000a900473ffffffffffffffffffffffffffffffffffffffff1673ffffffffffffffffffffffffffffffffffffffff1663a9059cbb83836040518363ffffffff1660e01b8152600401611a05929190613f79565b602060405180830381600087803b158015611a1f57600080fd5b505af1158015611a33573d6000803e3d6000fd5b505050506040513d601f19601f82011682018060405250810190611a57919061329e565b505b505050565b600281604051611a6e9190613f1d565b908152602001604051809103902060040160009054906101000a900473ffffffffffffffffffffffffffffffffffffffff1673ffffffffffffffffffffffffffffffffffffffff163373ffffffffffffffffffffffffffffffffffffffff1614611b0d576040517f08c379a0000000000000000000000000000000000000000000000000000000008152600401611b049061418d565b60405180910390fd5b81600282604051611b1e9190613f1d565b908152602001604051809103902060040160006101000a81548173ffffffffffffffffffffffffffffffffffffffff021916908373ffffffffffffffffffffffffffffffffffffffff1602179055508173ffffffffffffffffffffffffffffffffffffffff163373ffffffffffffffffffffffffffffffffffffffff167f8be0079c531659141344cd1fd0a4f28419497f9722a3daafe3b4186f6b6457e060405160405180910390a35050565b8282828151835114611c12576040517f08c379a0000000000000000000000000000000000000000000000000000000008152600401611c099061426d565b60405180910390fd5b600281604051611c229190613f1d565b908152602001604051809103902060000160009054906101000a900460ff1615611c81576040517f08c379a0000000000000000000000000000000000000000000000000000000008152600401611c789061428d565b60405180910390fd5b6000805b8351811015611d72576000848281518110611cc9577f4e487b7100000000000000000000000000000000000000000000000000000000600052603260045260246000fd5b602002602001015111611d11576040517f08c379a0000000000000000000000000000000000000000000000000000000008152600401611d089061422d565b60405180910390fd5b838181518110611d4a577f4e487b7100000000000000000000000000000000000000000000000000000000600052603260045260246000fd5b602002602001015182611d5d9190614510565b91508080611d6a9061477c565b915050611c85565b5060648114611db6576040517f08c379a0000000000000000000000000000000000000000000000000000000008152600401611dad906140ed565b60405180910390fd5b60006040518060a001604052806001151581526020018781526020018981526020018881526020013373ffffffffffffffffffffffffffffffffffffffff16815250905080600287604051611e0b9190613f1d565b908152602001604051809103902060008201518160000160006101000a81548160ff0219169083151502179055506020820151816001019080519060200190611e55929190612cff565b506040820151816002019080519060200190611e72929190612d85565b506060820151816003019080519060200190611e8f929190612e0f565b5060808201518160040160006101000a81548173ffffffffffffffffffffffffffffffffffffffff021916908373ffffffffffffffffffffffffffffffffffffffff160217905550905050600160003373ffffffffffffffffffffffffffffffffffffffff1673ffffffffffffffffffffffffffffffffffffffff16815260200190815260200160002081908060018154018082558091505060019003906000526020600020906005020160009091909190915060008201518160000160006101000a81548160ff0219169083151502179055506020820151816001019080519060200190611f7f929190612cff565b506040820151816002019080519060200190611f9c929190612d85565b506060820151816003019080519060200190611fb9929190612e0f565b5060808201518160040160006101000a81548173ffffffffffffffffffffffffffffffffffffffff021916908373ffffffffffffffffffffffffffffffffffffffff16021790555050507f71f6985c1c0ebd3b4b00e8199d5e9f443c52159d8e6c8b585d755c05ae95646a3382604051612034929190614002565b60405180910390a15050505050505050565b60076020528260005260406000208280516020810182018051848252602083016020850120818352809550505050505060205280600052604060002060009250925050505481565b60008082905060008173ffffffffffffffffffffffffffffffffffffffff1663feaf968c6040518163ffffffff1660e01b815260040160a06040518083038186803b1580156120dc57600080fd5b505afa1580156120f0573d6000803e3d6000fd5b505050506040513d601f19601f820116820180604052508101906121149190613466565b5050509150508092505050919050565b6000600760008573ffffffffffffffffffffffffffffffffffffffff1673ffffffffffffffffffffffffffffffffffffffff168152602001908152602001600020836040516121739190613f1d565b908152602001604051809103902060008373ffffffffffffffffffffffffffffffffffffffff1673ffffffffffffffffffffffffffffffffffffffff1681526020019081526020016000205490509392505050565b6121d0612986565b73ffffffffffffffffffffffffffffffffffffffff166121ee61185f565b73ffffffffffffffffffffffffffffffffffffffff1614612244576040517f08c379a000000000000000000000000000000000000000000000000000000000815260040161223b906141ad565b60405180910390fd5b600073ffffffffffffffffffffffffffffffffffffffff168173ffffffffffffffffffffffffffffffffffffffff1614156122b4576040517f08c379a00000000000000000000000000000000000000000000000000000000081526004016122ab906140cd565b60405180910390fd5b6122bd8161298e565b50565b6122c8612e5c565b6002826040516122d89190613f1d565b908152602001604051809103902060000160009054906101000a900460ff16612336576040517f08c379a000000000000000000000000000000000000000000000000000000000815260040161232d9061420d565b60405180910390fd5b6002826040516123469190613f1d565b90815260200160405180910390206040518060a00160405290816000820160009054906101000a900460ff1615151515815260200160018201805461238a9061474a565b80601f01602080910402602001604051908101604052809291908181526020018280546123b69061474a565b80156124035780601f106123d857610100808354040283529160200191612403565b820191906000526020600020905b8154815290600101906020018083116123e657829003601f168201915b505050505081526020016002820180548060200260200160405190810160405280929190818152602001828054801561249157602002820191906000526020600020905b8160009054906101000a900473ffffffffffffffffffffffffffffffffffffffff1673ffffffffffffffffffffffffffffffffffffffff1681526020019060010190808311612447575b50505050508152602001600382018054806020026020016040519081016040528092919081815260200182805480156124e957602002820191906000526020600020905b8154815260200190600101908083116124d5575b505050505081526020016004820160009054906101000a900473ffffffffffffffffffffffffffffffffffffffff1673ffffffffffffffffffffffffffffffffffffffff1673ffffffffffffffffffffffffffffffffffffffff16815250509050919050565b600080600f4261255f9190614510565b9050600073c778417e063141139fce010982780140aa0cd5ab90506000610bb8905060003390506000600190506000806040518061010001604052808773ffffffffffffffffffffffffffffffffffffffff1681526020018b73ffffffffffffffffffffffffffffffffffffffff1681526020018662ffffff1681526020018573ffffffffffffffffffffffffffffffffffffffff1681526020018881526020018a81526020018481526020018373ffffffffffffffffffffffffffffffffffffffff16815250905073e592427a0aece92de3edee1f18e0157c0586156473ffffffffffffffffffffffffffffffffffffffff1663414bf3898a836040518363ffffffff1660e01b815260040161267691906142ad565b6020604051808303818588803b15801561268f57600080fd5b505af11580156126a3573d6000803e3d6000fd5b50505050506040513d601f19601f820116820180604052508101906126c8919061343d565b97505050505050505092915050565b600080821161271b576040517f08c379a0000000000000000000000000000000000000000000000000000000008152600401612712906141ed565b60405180910390fd5b60008473ffffffffffffffffffffffffffffffffffffffff1663dd62ed3e33306040518363ffffffff1660e01b8152600401612758929190613fa2565b60206040518083038186803b15801561277057600080fd5b505afa158015612784573d6000803e3d6000fd5b505050506040513d601f19601f820116820180604052508101906127a8919061343d565b9050828110156127ed576040517f08c379a00000000000000000000000000000000000000000000000000000000081526004016127e49061414d565b60405180910390fd5b6127f985333086612a52565b6128188573e592427a0aece92de3edee1f18e0157c0586156485612baa565b6000600f426128279190614510565b90506000610bb8905060003390506000600190506000806040518061010001604052808c73ffffffffffffffffffffffffffffffffffffffff1681526020018b73ffffffffffffffffffffffffffffffffffffffff1681526020018662ffffff1681526020018573ffffffffffffffffffffffffffffffffffffffff1681526020018781526020018a81526020018481526020018373ffffffffffffffffffffffffffffffffffffffff16815250905073e592427a0aece92de3edee1f18e0157c0586156473ffffffffffffffffffffffffffffffffffffffff1663414bf389826040518263ffffffff1660e01b815260040161292491906142ad565b602060405180830381600087803b15801561293e57600080fd5b505af1158015612952573d6000803e3d6000fd5b505050506040513d601f19601f82011682018060405250810190612976919061343d565b9750505050505050509392505050565b600033905090565b60008060009054906101000a900473ffffffffffffffffffffffffffffffffffffffff169050816000806101000a81548173ffffffffffffffffffffffffffffffffffffffff021916908373ffffffffffffffffffffffffffffffffffffffff1602179055508173ffffffffffffffffffffffffffffffffffffffff168173ffffffffffffffffffffffffffffffffffffffff167f8be0079c531659141344cd1fd0a4f28419497f9722a3daafe3b4186f6b6457e060405160405180910390a35050565b6000808573ffffffffffffffffffffffffffffffffffffffff166323b872dd60e01b868686604051602401612a8993929190613fcb565b604051602081830303815290604052907bffffffffffffffffffffffffffffffffffffffffffffffffffffffff19166020820180517bffffffffffffffffffffffffffffffffffffffffffffffffffffffff8381831617835250505050604051612af39190613f06565b6000604051808303816000865af19150503d8060008114612b30576040519150601f19603f3d011682016040523d82523d6000602084013e612b35565b606091505b5091509150818015612b635750600081511480612b62575080806020019051810190612b61919061329e565b5b5b612ba2576040517f08c379a0000000000000000000000000000000000000000000000000000000008152600401612b99906141cd565b60405180910390fd5b505050505050565b6000808473ffffffffffffffffffffffffffffffffffffffff1663095ea7b360e01b8585604051602401612bdf929190614032565b604051602081830303815290604052907bffffffffffffffffffffffffffffffffffffffffffffffffffffffff19166020820180517bffffffffffffffffffffffffffffffffffffffffffffffffffffffff8381831617835250505050604051612c499190613f06565b6000604051808303816000865af19150503d8060008114612c86576040519150601f19603f3d011682016040523d82523d6000602084013e612c8b565b606091505b5091509150818015612cb95750600081511480612cb8575080806020019051810190612cb7919061329e565b5b5b612cf8576040517f08c379a0000000000000000000000000000000000000000000000000000000008152600401612cef906140ad565b60405180910390fd5b5050505050565b828054612d0b9061474a565b90600052602060002090601f016020900481019282612d2d5760008555612d74565b82601f10612d4657805160ff1916838001178555612d74565b82800160010185558215612d74579182015b82811115612d73578251825591602001919060010190612d58565b5b509050612d819190612ea3565b5090565b828054828255906000526020600020908101928215612dfe579160200282015b82811115612dfd5782518260006101000a81548173ffffffffffffffffffffffffffffffffffffffff021916908373ffffffffffffffffffffffffffffffffffffffff16021790555091602001919060010190612da5565b5b509050612e0b9190612ea3565b5090565b828054828255906000526020600020908101928215612e4b579160200282015b82811115612e4a578251825591602001919060010190612e2f565b5b509050612e589190612ea3565b5090565b6040518060a00160405280600015158152602001606081526020016060815260200160608152602001600073ffffffffffffffffffffffffffffffffffffffff1681525090565b5b80821115612ebc576000816000905550600101612ea4565b5090565b6000612ed3612ece846143a6565b614375565b90508083825260208201905082856020860282011115612ef257600080fd5b60005b85811015612f225781612f088882612fd6565b845260208401935060208301925050600181019050612ef5565b5050509392505050565b6000612f3f612f3a846143d2565b614375565b90508083825260208201905082856020860282011115612f5e57600080fd5b60005b85811015612f8e5781612f7488826130a8565b845260208401935060208301925050600181019050612f61565b5050509392505050565b6000612fab612fa6846143fe565b614375565b905082815260208101848484011115612fc357600080fd5b612fce848285614708565b509392505050565b600081359050612fe5816148c3565b92915050565b600081359050612ffa816148da565b92915050565b600082601f83011261301157600080fd5b8135613021848260208601612ec0565b91505092915050565b600082601f83011261303b57600080fd5b813561304b848260208601612f2c565b91505092915050565b600081519050613063816148f1565b92915050565b60008151905061307881614908565b92915050565b600082601f83011261308f57600080fd5b813561309f848260208601612f98565b91505092915050565b6000813590506130b78161491f565b92915050565b6000815190506130cc8161491f565b92915050565b6000815190506130e181614936565b92915050565b6000602082840312156130f957600080fd5b600061310784828501612fd6565b91505092915050565b6000806040838503121561312357600080fd5b600061313185828601612fd6565b925050602083013567ffffffffffffffff81111561314e57600080fd5b61315a8582860161307e565b9150509250929050565b60008060006060848603121561317957600080fd5b600061318786828701612fd6565b935050602084013567ffffffffffffffff8111156131a457600080fd5b6131b08682870161307e565b92505060406131c186828701612fd6565b9150509250925092565b600080604083850312156131de57600080fd5b60006131ec85828601612fd6565b92505060206131fd858286016130a8565b9150509250929050565b60008060006060848603121561321c57600080fd5b600084013567ffffffffffffffff81111561323657600080fd5b61324286828701613000565b935050602084013567ffffffffffffffff81111561325f57600080fd5b61326b8682870161302a565b925050604084013567ffffffffffffffff81111561328857600080fd5b6132948682870161307e565b9150509250925092565b6000602082840312156132b057600080fd5b60006132be84828501613054565b91505092915050565b600080604083850312156132da57600080fd5b600083013567ffffffffffffffff8111156132f457600080fd5b6133008582860161307e565b925050602061331185828601612fd6565b9150509250929050565b60008060006060848603121561333057600080fd5b600084013567ffffffffffffffff81111561334a57600080fd5b6133568682870161307e565b935050602061336786828701612feb565b9250506040613378868287016130a8565b9150509250925092565b60008060006060848603121561339757600080fd5b600084013567ffffffffffffffff8111156133b157600080fd5b6133bd8682870161307e565b93505060206133ce86828701612fd6565b92505060406133df868287016130a8565b9150509250925092565b600080604083850312156133fc57600080fd5b600083013567ffffffffffffffff81111561341657600080fd5b6134228582860161307e565b9250506020613433858286016130a8565b9150509250929050565b60006020828403121561344f57600080fd5b600061345d848285016130bd565b91505092915050565b600080600080600060a0868803121561347e57600080fd5b600061348c888289016130d2565b955050602061349d88828901613069565b94505060406134ae888289016130bd565b93505060606134bf888289016130bd565b92505060806134d0888289016130d2565b9150509295509295909350565b60006134e9838361351c565b60208301905092915050565b60006135018383613ecd565b60208301905092915050565b613516816146ae565b82525050565b61352581614625565b82525050565b61353481614625565b82525050565b61354b61354682614625565b6147c5565b82525050565b600061355c8261444e565b6135668185614494565b93506135718361442e565b8060005b838110156135a257815161358988826134dd565b97506135948361447a565b925050600181019050613575565b5085935050505092915050565b60006135ba8261444e565b6135c481856144a5565b93506135cf8361442e565b8060005b838110156136005781516135e788826134dd565b97506135f28361447a565b9250506001810190506135d3565b5085935050505092915050565b600061361882614459565b61362281856144b6565b935061362d8361443e565b8060005b8381101561365e57815161364588826134f5565b975061365083614487565b925050600181019050613631565b5085935050505092915050565b600061367682614459565b61368081856144c7565b935061368b8361443e565b8060005b838110156136bc5781516136a388826134f5565b97506136ae83614487565b92505060018101905061368f565b5085935050505092915050565b6136d281614649565b82525050565b60006136e382614464565b6136ed81856144d8565b93506136fd818560208601614717565b80840191505092915050565b613712816146c0565b82525050565b60006137238261446f565b61372d81856144e3565b935061373d818560208601614717565b613746816148a5565b840191505092915050565b600061375c8261446f565b61376681856144f4565b9350613776818560208601614717565b61377f816148a5565b840191505092915050565b60006137958261446f565b61379f8185614505565b93506137af818560208601614717565b80840191505092915050565b60006137c86002836144f4565b91507f53410000000000000000000000000000000000000000000000000000000000006000830152602082019050919050565b60006138086026836144f4565b91507f4f776e61626c653a206e6577206f776e657220697320746865207a65726f206160008301527f64647265737300000000000000000000000000000000000000000000000000006020830152604082019050919050565b600061386e6032836144f4565b91507f73756d206f662077656967687473206f6620636f6e7374697475656e7473206960008301527f73206e6f7420657175616c20746f2031303000000000000000000000000000006020830152604082019050919050565b60006138d4602a836144f4565b91507f6661696c20746f2073656e64207468652073756273637269626572206665652060008301527f746f2063726561746f72000000000000000000000000000000000000000000006020830152604082019050919050565b600061393a6023836144f4565b91507f757365722063616e277420726563656976652045544820617320746f6b656e2060008301527f6f757400000000000000000000000000000000000000000000000000000000006020830152604082019050919050565b60006139a06019836144f4565b91507f436865636b2074686520746f6b656e20616c6c6f77616e6365000000000000006000830152602082019050919050565b60006139e0601c836144f4565b91507f76616c75652063616c6c656420213d2076616c756520706173736564000000006000830152602082019050919050565b6000613a206023836144f4565b91507f796f7520617265206e6f7420746865206f776e6572206f66207468652062617360008301527f6b657400000000000000000000000000000000000000000000000000000000006020830152604082019050919050565b6000613a866020836144f4565b91507f4f776e61626c653a2063616c6c6572206973206e6f7420746865206f776e65726000830152602082019050919050565b6000613ac66003836144f4565b91507f53544600000000000000000000000000000000000000000000000000000000006000830152602082019050919050565b6000613b06600383614505565b91507f45544800000000000000000000000000000000000000000000000000000000006000830152600382019050919050565b6000613b466000836144d8565b9150600082019050919050565b6000613b60601c836144f4565b91507f4d7573742070617373206e6f6e203020696e70757420616d6f756e74000000006000830152602082019050919050565b6000613ba06016836144f4565b91507f6261736b657420646f6573206e6f7420657869737473000000000000000000006000830152602082019050919050565b6000613be06016836144f4565b91507f776569676874206d75737420626520706f7374697665000000000000000000006000830152602082019050919050565b6000613c20601a836144f4565b91507f4d7573742070617373206e6f6e20302045544820616d6f756e740000000000006000830152602082019050919050565b6000613c606029836144f4565b91507f616c6c20746f6b656e732068617665206e6f74206265656e2061737369676e6560008301527f64207765696768747300000000000000000000000000000000000000000000006020830152604082019050919050565b6000613cc6601f836144f4565b91507f6964656e746963616c206261736b657420616c726561647920657869737473006000830152602082019050919050565b600060a083016000830151613d1160008601826136c9565b5060208301518482036020860152613d298282613718565b91505060408301518482036040860152613d438282613551565b91505060608301518482036060860152613d5d828261360d565b9150506080830151613d72608086018261351c565b508091505092915050565b61010082016000820151613d94600085018261351c565b506020820151613da7602085018261351c565b506040820151613dba6040850182613ebe565b506060820151613dcd606085018261351c565b506080820151613de06080850182613ecd565b5060a0820151613df360a0850182613ecd565b5060c0820151613e0660c0850182613ecd565b5060e0820151613e1960e0850182613eaf565b50505050565b600060c083016000830151613e376000860182613ecd565b506020830151613e4a6020860182613ecd565b506040830151613e5d604086018261351c565b506060830151613e70606086018261351c565b5060808301518482036080860152613e888282613718565b91505060a083015184820360a0860152613ea28282613718565b9150508091505092915050565b613eb88161465f565b82525050565b613ec78161467f565b82525050565b613ed68161468e565b82525050565b613ee58161468e565b82525050565b6000613ef7828461353a565b60148201915081905092915050565b6000613f1282846136d8565b915081905092915050565b6000613f29828461378a565b915081905092915050565b6000613f3f82613af9565b9150819050919050565b6000613f5482613b39565b9150819050919050565b6000602082019050613f73600083018461352b565b92915050565b6000604082019050613f8e600083018561350d565b613f9b6020830184613edc565b9392505050565b6000604082019050613fb7600083018561352b565b613fc4602083018461352b565b9392505050565b6000606082019050613fe0600083018661352b565b613fed602083018561352b565b613ffa6040830184613edc565b949350505050565b6000604082019050614017600083018561352b565b81810360208301526140298184613cf9565b90509392505050565b6000604082019050614047600083018561352b565b6140546020830184613edc565b9392505050565b6000604082019050818103600083015261407581856135af565b90508181036020830152614089818461366b565b90509392505050565b60006020820190506140a76000830184613709565b92915050565b600060208201905081810360008301526140c6816137bb565b9050919050565b600060208201905081810360008301526140e6816137fb565b9050919050565b6000602082019050818103600083015261410681613861565b9050919050565b60006020820190508181036000830152614126816138c7565b9050919050565b600060208201905081810360008301526141468161392d565b9050919050565b6000602082019050818103600083015261416681613993565b9050919050565b60006020820190508181036000830152614186816139d3565b9050919050565b600060208201905081810360008301526141a681613a13565b9050919050565b600060208201905081810360008301526141c681613a79565b9050919050565b600060208201905081810360008301526141e681613ab9565b9050919050565b6000602082019050818103600083015261420681613b53565b9050919050565b6000602082019050818103600083015261422681613b93565b9050919050565b6000602082019050818103600083015261424681613bd3565b9050919050565b6000602082019050818103600083015261426681613c13565b9050919050565b6000602082019050818103600083015261428681613c53565b9050919050565b600060208201905081810360008301526142a681613cb9565b9050919050565b6000610100820190506142c36000830184613d7d565b92915050565b600060208201905081810360008301526142e38184613e1f565b905092915050565b60006020820190506143006000830184613edc565b92915050565b600060c08201905061431b6000830189613edc565b6143286020830188613edc565b614335604083018761352b565b614342606083018661352b565b81810360808301526143548185613751565b905081810360a08301526143688184613751565b9050979650505050505050565b6000604051905081810181811067ffffffffffffffff8211171561439c5761439b614876565b5b8060405250919050565b600067ffffffffffffffff8211156143c1576143c0614876565b5b602082029050602081019050919050565b600067ffffffffffffffff8211156143ed576143ec614876565b5b602082029050602081019050919050565b600067ffffffffffffffff82111561441957614418614876565b5b601f19601f8301169050602081019050919050565b6000819050602082019050919050565b6000819050602082019050919050565b600081519050919050565b600081519050919050565b600081519050919050565b600081519050919050565b6000602082019050919050565b6000602082019050919050565b600082825260208201905092915050565b600082825260208201905092915050565b600082825260208201905092915050565b600082825260208201905092915050565b600081905092915050565b600082825260208201905092915050565b600082825260208201905092915050565b600081905092915050565b600061451b8261468e565b91506145268361468e565b9250827fffffffffffffffffffffffffffffffffffffffffffffffffffffffffffffffff0382111561455b5761455a6147e9565b5b828201905092915050565b60006145718261468e565b915061457c8361468e565b92508261458c5761458b614818565b5b828204905092915050565b60006145a28261468e565b91506145ad8361468e565b9250817fffffffffffffffffffffffffffffffffffffffffffffffffffffffffffffffff04831182151516156145e6576145e56147e9565b5b828202905092915050565b60006145fc8261468e565b91506146078361468e565b92508282101561461a576146196147e9565b5b828203905092915050565b60006146308261465f565b9050919050565b60006146428261465f565b9050919050565b60008115159050919050565b6000819050919050565b600073ffffffffffffffffffffffffffffffffffffffff82169050919050565b600062ffffff82169050919050565b6000819050919050565b600069ffffffffffffffffffff82169050919050565b60006146b9826146e4565b9050919050565b60006146cb826146d2565b9050919050565b60006146dd8261465f565b9050919050565b60006146ef826146f6565b9050919050565b60006147018261465f565b9050919050565b82818337600083830152505050565b60005b8381101561473557808201518184015260208101905061471a565b83811115614744576000848401525b50505050565b6000600282049050600182168061476257607f821691505b6020821081141561477657614775614847565b5b50919050565b60006147878261468e565b91507fffffffffffffffffffffffffffffffffffffffffffffffffffffffffffffffff8214156147ba576147b96147e9565b5b600182019050919050565b60006147d0826147d7565b9050919050565b60006147e2826148b6565b9050919050565b7f4e487b7100000000000000000000000000000000000000000000000000000000600052601160045260246000fd5b7f4e487b7100000000000000000000000000000000000000000000000000000000600052601260045260246000fd5b7f4e487b7100000000000000000000000000000000000000000000000000000000600052602260045260246000fd5b7f4e487b7100000000000000000000000000000000000000000000000000000000600052604160045260246000fd5b6000601f19601f8301169050919050565b60008160601b9050919050565b6148cc81614625565b81146148d757600080fd5b50565b6148e381614637565b81146148ee57600080fd5b50565b6148fa81614649565b811461490557600080fd5b50565b61491181614655565b811461491c57600080fd5b50565b6149288161468e565b811461493357600080fd5b50565b61493f81614698565b811461494a57600080fd5b5056fea26469706673582212203cb6c7ef367e1b7566668b785c1b6a4d940f0ad909d2020be584f6bb15e0439264736f6c63430008000033",
  "linkReferences": {},
  "deployedLinkReferences": {}
}