{
  "_format": "hh-sol-artifact-1",
  "contractName": "Subscribe",
  "sourceName": "contracts/Subscribe.sol",
  "abi": [
    {
      "anonymous": false,
      "inputs": [
        {
          "indexed": true,
          "internalType": "address",
          "name": "previousOwner",
          "type": "address"
        },
        {
          "indexed": true,
          "internalType": "address",
          "name": "newOwner",
          "type": "address"
        }
      ],
      "name": "OwnershipTransferred",
      "type": "event"
    },
    {
      "anonymous": false,
      "inputs": [
        {
          "indexed": false,
          "internalType": "address",
          "name": "owner",
          "type": "address"
        },
        {
          "components": [
            {
              "internalType": "bool",
              "name": "active",
              "type": "bool"
            },
            {
              "internalType": "string",
              "name": "BasketID",
              "type": "string"
            },
            {
              "internalType": "address[]",
              "name": "tokens",
              "type": "address[]"
            },
            {
              "internalType": "uint256[]",
              "name": "weights",
              "type": "uint256[]"
            },
            {
              "internalType": "address",
              "name": "basketOwner",
              "type": "address"
            }
          ],
          "indexed": false,
          "internalType": "struct Baskets.Basket",
          "name": "basket",
          "type": "tuple"
        }
      ],
      "name": "basketCreated",
      "type": "event"
    },
    {
      "inputs": [
        {
          "internalType": "string",
          "name": "_basketID",
          "type": "string"
        },
        {
          "internalType": "address",
          "name": "_tokenIn",
          "type": "address"
        },
        {
          "internalType": "uint256",
          "name": "_amountAdd",
          "type": "uint256"
        }
      ],
      "name": "add",
      "outputs": [],
      "stateMutability": "payable",
      "type": "function"
    },
    {
      "inputs": [
        {
          "internalType": "string",
          "name": "_basketID",
          "type": "string"
        },
        {
          "internalType": "uint256",
          "name": "_amount",
          "type": "uint256"
        }
      ],
      "name": "basketToComponent",
      "outputs": [
        {
          "internalType": "address[]",
          "name": "",
          "type": "address[]"
        },
        {
          "internalType": "uint256[]",
          "name": "",
          "type": "uint256[]"
        }
      ],
      "stateMutability": "view",
      "type": "function"
    },
    {
      "inputs": [
        {
          "internalType": "address[]",
          "name": "tokens",
          "type": "address[]"
        },
        {
          "internalType": "uint256[]",
          "name": "weights",
          "type": "uint256[]"
        },
        {
          "internalType": "string",
          "name": "id",
          "type": "string"
        }
      ],
      "name": "createBasket",
      "outputs": [],
      "stateMutability": "nonpayable",
      "type": "function"
    },
    {
      "inputs": [
        {
          "internalType": "string",
          "name": "_basketID",
          "type": "string"
        },
        {
          "internalType": "address",
          "name": "_tokenIn",
          "type": "address"
        },
        {
          "internalType": "uint256",
          "name": "_amount",
          "type": "uint256"
        }
      ],
      "name": "deposit",
      "outputs": [],
      "stateMutability": "payable",
      "type": "function"
    },
    {
      "inputs": [
        {
          "internalType": "string",
          "name": "_basketID",
          "type": "string"
        },
        {
          "internalType": "address",
          "name": "_tokenOut",
          "type": "address"
        }
      ],
      "name": "exit",
      "outputs": [],
      "stateMutability": "nonpayable",
      "type": "function"
    },
    {
      "inputs": [
        {
          "internalType": "address",
          "name": "_pair",
          "type": "address"
        }
      ],
      "name": "getPrice",
      "outputs": [
        {
          "internalType": "uint256",
          "name": "",
          "type": "uint256"
        }
      ],
      "stateMutability": "view",
      "type": "function"
    },
    {
      "inputs": [
        {
          "internalType": "address",
          "name": "user",
          "type": "address"
        },
        {
          "internalType": "string",
          "name": "_basketID",
          "type": "string"
        },
        {
          "internalType": "address",
          "name": "_token",
          "type": "address"
        }
      ],
      "name": "getUserHoldingForToken",
      "outputs": [
        {
          "internalType": "uint256",
          "name": "",
          "type": "uint256"
        }
      ],
      "stateMutability": "view",
      "type": "function"
    },
    {
      "inputs": [],
      "name": "owner",
      "outputs": [
        {
          "internalType": "address",
          "name": "",
          "type": "address"
        }
      ],
      "stateMutability": "view",
      "type": "function"
    },
    {
      "inputs": [],
      "name": "renounceOwnership",
      "outputs": [],
      "stateMutability": "nonpayable",
      "type": "function"
    },
    {
      "inputs": [
        {
          "internalType": "string",
          "name": "_basketID",
          "type": "string"
        },
        {
          "internalType": "address",
          "name": "_tokenOut",
          "type": "address"
        },
        {
          "internalType": "uint256",
          "name": "_amountSell",
          "type": "uint256"
        }
      ],
      "name": "sell",
      "outputs": [],
      "stateMutability": "payable",
      "type": "function"
    },
    {
      "inputs": [
        {
          "internalType": "address",
          "name": "_newOwner",
          "type": "address"
        },
        {
          "internalType": "string",
          "name": "basketId",
          "type": "string"
        }
      ],
      "name": "transferBasketOwnership",
      "outputs": [],
      "stateMutability": "nonpayable",
      "type": "function"
    },
    {
      "inputs": [
        {
          "internalType": "address",
          "name": "newOwner",
          "type": "address"
        }
      ],
      "name": "transferOwnership",
      "outputs": [],
      "stateMutability": "nonpayable",
      "type": "function"
    },
    {
      "inputs": [],
      "name": "uniswapRouter",
      "outputs": [
        {
          "internalType": "contract IUniswapRouter",
          "name": "",
          "type": "address"
        }
      ],
      "stateMutability": "view",
      "type": "function"
    },
    {
      "inputs": [
        {
          "internalType": "address",
          "name": "",
          "type": "address"
        },
        {
          "internalType": "string",
          "name": "",
          "type": "string"
        },
        {
          "internalType": "address",
          "name": "",
          "type": "address"
        }
      ],
      "name": "userToHolding",
      "outputs": [
        {
          "internalType": "uint256",
          "name": "",
          "type": "uint256"
        }
      ],
      "stateMutability": "view",
      "type": "function"
    }
  ],
  "bytecode": "0x60806040523480156200001157600080fd5b5062000032620000266200003860201b60201c565b6200004060201b60201c565b62000104565b600033905090565b60008060009054906101000a900473ffffffffffffffffffffffffffffffffffffffff169050816000806101000a81548173ffffffffffffffffffffffffffffffffffffffff021916908373ffffffffffffffffffffffffffffffffffffffff1602179055508173ffffffffffffffffffffffffffffffffffffffff168173ffffffffffffffffffffffffffffffffffffffff167f8be0079c531659141344cd1fd0a4f28419497f9722a3daafe3b4186f6b6457e060405160405180910390a35050565b614e0880620001146000396000f3fe6080604052600436106100dd5760003560e01c80638da5cb5b1161007f578063de6505d011610059578063de6505d01461027d578063f029e300146102ba578063f2fde38b146102f7578063ff03cf4f14610320576100dd565b80638da5cb5b146102005780639b1d70c51461022b578063d85ab8d914610254576100dd565b806362e69fab116100bb57806362e69fab14610157578063715018a614610180578063735de9f7146101975780638766294e146101c2576100dd565b80631fe1c18e146100e25780632a48ac9a146100fe57806341976e091461011a575b600080fd5b6100fc60048036038101906100f791906139e0565b61033c565b005b610118600480360381019061011391906139e0565b610379565b005b34801561012657600080fd5b50610141600480360381019061013c91906137e8565b610482565b60405161014e91906146c4565b60405180910390f35b34801561016357600080fd5b5061017e6004803603810190610179919061398c565b610518565b005b34801561018c57600080fd5b5061019561090d565b005b3480156101a357600080fd5b506101ac610995565b6040516101b991906144ad565b60405180910390f35b3480156101ce57600080fd5b506101e960048036038101906101e49190613a47565b6109ad565b6040516101f7929190614476565b60405180910390f35b34801561020c57600080fd5b50610215610b11565b60405161022291906143a2565b60405180910390f35b34801561023757600080fd5b50610252600480360381019061024d9190613811565b610b3a565b005b34801561026057600080fd5b5061027b600480360381019061027691906138cc565b610ca7565b005b34801561028957600080fd5b506102a4600480360381019061029f9190613865565b611122565b6040516102b191906146c4565b60405180910390f35b3480156102c657600080fd5b506102e160048036038101906102dc9190613865565b61116a565b6040516102ee91906146c4565b60405180910390f35b34801561030357600080fd5b5061031e600480360381019061031991906137e8565b61120e565b005b61033a600480360381019061033591906139e0565b611306565b005b610374837fffffffffffffffffffffffffffffffffffffffffffffffffffffffffffffffff8361036c9190614995565b600085611318565b505050565b600081116103bc576040517f08c379a00000000000000000000000000000000000000000000000000000000081526004016103b3906144e8565b60405180910390fd5b6000806103c985846109ad565b9150915060005b825181101561047a5761046785848381518110610416577f4e487b7100000000000000000000000000000000000000000000000000000000600052603260045260246000fd5b6020026020010151848481518110610457577f4e487b7100000000000000000000000000000000000000000000000000000000600052603260045260246000fd5b602002602001015160018a611ba0565b808061047290614c49565b9150506103d0565b505050505050565b60008082905060008173ffffffffffffffffffffffffffffffffffffffff1663feaf968c6040518163ffffffff1660e01b815260040160a06040518083038186803b1580156104d057600080fd5b505afa1580156104e4573d6000803e3d6000fd5b505050506040513d601f19601f820116820180604052508101906105089190613ac4565b5050509150508092505050919050565b600073ffffffffffffffffffffffffffffffffffffffff168173ffffffffffffffffffffffffffffffffffffffff161415610588576040517f08c379a000000000000000000000000000000000000000000000000000000000815260040161057f90614528565b60405180910390fd5b6000600560003373ffffffffffffffffffffffffffffffffffffffff1673ffffffffffffffffffffffffffffffffffffffff168152602001908152602001600020836040516105d7919061438b565b908152602001604051809103902080548060200260200160405190810160405280929190818152602001828054801561066557602002820191906000526020600020905b8160009054906101000a900473ffffffffffffffffffffffffffffffffffffffff1673ffffffffffffffffffffffffffffffffffffffff168152602001906001019080831161061b575b5050505050905060005b815181101561090757600073ffffffffffffffffffffffffffffffffffffffff168282815181106106c9577f4e487b7100000000000000000000000000000000000000000000000000000000600052603260045260246000fd5b602002602001015173ffffffffffffffffffffffffffffffffffffffff16146108f4576000610898600460003373ffffffffffffffffffffffffffffffffffffffff1673ffffffffffffffffffffffffffffffffffffffff1681526020019081526020016000208660405161073e919061438b565b90815260200160405180910390206000858581518110610787577f4e487b7100000000000000000000000000000000000000000000000000000000600052603260045260246000fd5b602002602001015173ffffffffffffffffffffffffffffffffffffffff1673ffffffffffffffffffffffffffffffffffffffff16815260200190815260200160002054848481518110610803577f4e487b7100000000000000000000000000000000000000000000000000000000600052603260045260246000fd5b602002602001015173ffffffffffffffffffffffffffffffffffffffff166370a08231336040518263ffffffff1660e01b815260040161084391906143a2565b60206040518083038186803b15801561085b57600080fd5b505afa15801561086f573d6000803e3d6000fd5b505050506040513d601f19601f820116820180604052508101906108939190613a9b565b6125bc565b905060008111156108f2576108f18383815181106108df577f4e487b7100000000000000000000000000000000000000000000000000000000600052603260045260246000fd5b60200260200101518583600089611ba0565b5b505b80806108ff90614c49565b91505061066f565b50505050565b6109156125d5565b73ffffffffffffffffffffffffffffffffffffffff16610933610b11565b73ffffffffffffffffffffffffffffffffffffffff1614610989576040517f08c379a0000000000000000000000000000000000000000000000000000000008152600401610980906145a8565b60405180910390fd5b61099360006125dd565b565b73e592427a0aece92de3edee1f18e0157c0586156481565b60608060006109bb856126a1565b90506000816040015190506000826060015190506000825167ffffffffffffffff811115610a12577f4e487b7100000000000000000000000000000000000000000000000000000000600052604160045260246000fd5b604051908082528060200260200182016040528015610a405781602001602082028036833780820191505090505b50905060005b8351811015610aff576064838281518110610a8a577f4e487b7100000000000000000000000000000000000000000000000000000000600052603260045260246000fd5b602002602001015189610a9d9190614aac565b610aa79190614964565b828281518110610ae0577f4e487b7100000000000000000000000000000000000000000000000000000000600052603260045260246000fd5b6020026020010181815250508080610af790614c49565b915050610a46565b50828195509550505050509250929050565b60008060009054906101000a900473ffffffffffffffffffffffffffffffffffffffff16905090565b600281604051610b4a919061438b565b908152602001604051809103902060040160009054906101000a900473ffffffffffffffffffffffffffffffffffffffff1673ffffffffffffffffffffffffffffffffffffffff163373ffffffffffffffffffffffffffffffffffffffff1614610be9576040517f08c379a0000000000000000000000000000000000000000000000000000000008152600401610be090614588565b60405180910390fd5b81600282604051610bfa919061438b565b908152602001604051809103902060040160006101000a81548173ffffffffffffffffffffffffffffffffffffffff021916908373ffffffffffffffffffffffffffffffffffffffff1602179055508173ffffffffffffffffffffffffffffffffffffffff163373ffffffffffffffffffffffffffffffffffffffff167f8be0079c531659141344cd1fd0a4f28419497f9722a3daafe3b4186f6b6457e060405160405180910390a35050565b8282828151835114610cee576040517f08c379a0000000000000000000000000000000000000000000000000000000008152600401610ce590614668565b60405180910390fd5b600281604051610cfe919061438b565b908152602001604051809103902060000160009054906101000a900460ff1615610d5d576040517f08c379a0000000000000000000000000000000000000000000000000000000008152600401610d5490614688565b60405180910390fd5b6000805b8351811015610e4e576000848281518110610da5577f4e487b7100000000000000000000000000000000000000000000000000000000600052603260045260246000fd5b602002602001015111610ded576040517f08c379a0000000000000000000000000000000000000000000000000000000008152600401610de490614628565b60405180910390fd5b838181518110610e26577f4e487b7100000000000000000000000000000000000000000000000000000000600052603260045260246000fd5b602002602001015182610e39919061490e565b91508080610e4690614c49565b915050610d61565b5060648114610e92576040517f08c379a0000000000000000000000000000000000000000000000000000000008152600401610e8990614548565b60405180910390fd5b60006040518060a001604052806001151581526020018781526020018981526020018881526020013373ffffffffffffffffffffffffffffffffffffffff16815250905080600287604051610ee7919061438b565b908152602001604051809103902060008201518160000160006101000a81548160ff0219169083151502179055506020820151816001019080519060200190610f31929190613415565b506040820151816002019080519060200190610f4e92919061349b565b506060820151816003019080519060200190610f6b929190613525565b5060808201518160040160006101000a81548173ffffffffffffffffffffffffffffffffffffffff021916908373ffffffffffffffffffffffffffffffffffffffff160217905550905050600160003373ffffffffffffffffffffffffffffffffffffffff1673ffffffffffffffffffffffffffffffffffffffff16815260200190815260200160002081908060018154018082558091505060019003906000526020600020906005020160009091909190915060008201518160000160006101000a81548160ff021916908315150217905550602082015181600101908051906020019061105b929190613415565b50604082015181600201908051906020019061107892919061349b565b506060820151816003019080519060200190611095929190613525565b5060808201518160040160006101000a81548173ffffffffffffffffffffffffffffffffffffffff021916908373ffffffffffffffffffffffffffffffffffffffff16021790555050507f71f6985c1c0ebd3b4b00e8199d5e9f443c52159d8e6c8b585d755c05ae95646a338260405161111092919061441d565b60405180910390a15050505050505050565b60046020528260005260406000208280516020810182018051848252602083016020850120818352809550505050505060205280600052604060002060009250925050505481565b6000600460008573ffffffffffffffffffffffffffffffffffffffff1673ffffffffffffffffffffffffffffffffffffffff168152602001908152602001600020836040516111b9919061438b565b908152602001604051809103902060008373ffffffffffffffffffffffffffffffffffffffff1673ffffffffffffffffffffffffffffffffffffffff1681526020019081526020016000205490509392505050565b6112166125d5565b73ffffffffffffffffffffffffffffffffffffffff16611234610b11565b73ffffffffffffffffffffffffffffffffffffffff161461128a576040517f08c379a0000000000000000000000000000000000000000000000000000000008152600401611281906145a8565b60405180910390fd5b600073ffffffffffffffffffffffffffffffffffffffff168173ffffffffffffffffffffffffffffffffffffffff1614156112fa576040517f08c379a00000000000000000000000000000000000000000000000000000000081526004016112f190614508565b60405180910390fd5b611303816125dd565b50565b6113138382600085611318565b505050565b6000806000611328338886612930565b9250925092506000851561133e5783905061134d565b868461134a919061487a565b90505b6000878561135b919061487a565b1361139b576040517f08c379a000000000000000000000000000000000000000000000000000000000815260040161139290614648565b60405180910390fd5b60006113a6896126a1565b905060005b81604001515181101561164657816060015181815181106113f5577f4e487b7100000000000000000000000000000000000000000000000000000000600052603260045260246000fd5b602002602001015160078b60405161140d919061438b565b908152602001604051809103902060008460400151848151811061145a577f4e487b7100000000000000000000000000000000000000000000000000000000600052603260045260246000fd5b602002602001015173ffffffffffffffffffffffffffffffffffffffff1673ffffffffffffffffffffffffffffffffffffffff168152602001908152602001600020819055506000600660003373ffffffffffffffffffffffffffffffffffffffff1673ffffffffffffffffffffffffffffffffffffffff1681526020019081526020016000208b6040516114ef919061438b565b908152602001604051809103902060008460400151848151811061153c577f4e487b7100000000000000000000000000000000000000000000000000000000600052603260045260246000fd5b602002602001015173ffffffffffffffffffffffffffffffffffffffff1673ffffffffffffffffffffffffffffffffffffffff1681526020019081526020016000205414156116335761163287836040015183815181106115c6577f4e487b7100000000000000000000000000000000000000000000000000000000600052603260045260246000fd5b602002602001015160648560600151858151811061160d577f4e487b7100000000000000000000000000000000000000000000000000000000600052603260045260246000fd5b6020026020010151876116209190614aac565b61162a9190614964565b60018e611ba0565b5b808061163e90614c49565b9150506113ab565b5060005b8451811015611b9457600073ffffffffffffffffffffffffffffffffffffffff168582815181106116a4577f4e487b7100000000000000000000000000000000000000000000000000000000600052603260045260246000fd5b602002602001015173ffffffffffffffffffffffffffffffffffffffff1614611b8157600060078b6040516116d9919061438b565b90815260200160405180910390206000878481518110611722577f4e487b7100000000000000000000000000000000000000000000000000000000600052603260045260246000fd5b602002602001015173ffffffffffffffffffffffffffffffffffffffff1673ffffffffffffffffffffffffffffffffffffffff168152602001908152602001600020541480156117b2575060008482815181106117a8577f4e487b7100000000000000000000000000000000000000000000000000000000600052603260045260246000fd5b6020026020010151115b15611939576119348582815181106117f3577f4e487b7100000000000000000000000000000000000000000000000000000000600052603260045260246000fd5b6020026020010151886118e1600360008c73ffffffffffffffffffffffffffffffffffffffff1673ffffffffffffffffffffffffffffffffffffffff16815260200190815260200160002060008a8781518110611879577f4e487b7100000000000000000000000000000000000000000000000000000000600052603260045260246000fd5b602002602001015173ffffffffffffffffffffffffffffffffffffffff1673ffffffffffffffffffffffffffffffffffffffff16815260200190815260200160002060009054906101000a900473ffffffffffffffffffffffffffffffffffffffff16610482565b87858151811061191a577f4e487b7100000000000000000000000000000000000000000000000000000000600052603260045260246000fd5b602002602001015161192c9190614964565b60008e611ba0565b611b80565b6000848281518110611974577f4e487b7100000000000000000000000000000000000000000000000000000000600052603260045260246000fd5b60200260200101516064846060015184815181106119bb577f4e487b7100000000000000000000000000000000000000000000000000000000600052603260045260246000fd5b6020026020010151866119ce9190614aac565b6119d89190614964565b6119e29190614b06565b90506000811315611a4057611a3b88878481518110611a2a577f4e487b7100000000000000000000000000000000000000000000000000000000600052603260045260246000fd5b60200260200101518360018f611ba0565b611b7e565b611b7d868381518110611a7c577f4e487b7100000000000000000000000000000000000000000000000000000000600052603260045260246000fd5b602002602001015189611b6a600360008d73ffffffffffffffffffffffffffffffffffffffff1673ffffffffffffffffffffffffffffffffffffffff16815260200190815260200160002060008b8881518110611b02577f4e487b7100000000000000000000000000000000000000000000000000000000600052603260045260246000fd5b602002602001015173ffffffffffffffffffffffffffffffffffffffff1673ffffffffffffffffffffffffffffffffffffffff16815260200190815260200160002060009054906101000a900473ffffffffffffffffffffffffffffffffffffffff16610482565b84611b759190614964565b60008f611ba0565b5b505b5b8080611b8c90614c49565b91505061164a565b50505050505050505050565b60008311611be3576040517f08c379a0000000000000000000000000000000000000000000000000000000008152600401611bda906144e8565b60405180910390fd5b600073ffffffffffffffffffffffffffffffffffffffff168573ffffffffffffffffffffffffffffffffffffffff16148015611c1c5750815b15611f3d576000611c2d8585612d31565b90506000600460003373ffffffffffffffffffffffffffffffffffffffff1673ffffffffffffffffffffffffffffffffffffffff16815260200190815260200160002083604051611c7e919061438b565b908152602001604051809103902060008773ffffffffffffffffffffffffffffffffffffffff1673ffffffffffffffffffffffffffffffffffffffff168152602001908152602001600020541415611e8857600560003373ffffffffffffffffffffffffffffffffffffffff1673ffffffffffffffffffffffffffffffffffffffff16815260200190815260200160002082604051611d1d919061438b565b9081526020016040518091039020859080600181540180825580915050600190039060005260206000200160009091909190916101000a81548173ffffffffffffffffffffffffffffffffffffffff021916908373ffffffffffffffffffffffffffffffffffffffff160217905550600560003373ffffffffffffffffffffffffffffffffffffffff1673ffffffffffffffffffffffffffffffffffffffff16815260200190815260200160002082604051611dd9919061438b565b908152602001604051809103902080549050600660003373ffffffffffffffffffffffffffffffffffffffff1673ffffffffffffffffffffffffffffffffffffffff16815260200190815260200160002083604051611e38919061438b565b908152602001604051809103902060008773ffffffffffffffffffffffffffffffffffffffff1673ffffffffffffffffffffffffffffffffffffffff168152602001908152602001600020819055505b80600460003373ffffffffffffffffffffffffffffffffffffffff1673ffffffffffffffffffffffffffffffffffffffff16815260200190815260200160002083604051611ed6919061438b565b908152602001604051809103902060008773ffffffffffffffffffffffffffffffffffffffff1673ffffffffffffffffffffffffffffffffffffffff1681526020019081526020016000206000828254611f30919061490e565b92505081905550506125b5565b6000611f4a868686612eb9565b9050821561225f576000600460003373ffffffffffffffffffffffffffffffffffffffff1673ffffffffffffffffffffffffffffffffffffffff16815260200190815260200160002083604051611fa1919061438b565b908152602001604051809103902060008773ffffffffffffffffffffffffffffffffffffffff1673ffffffffffffffffffffffffffffffffffffffff1681526020019081526020016000205414156121ab57600560003373ffffffffffffffffffffffffffffffffffffffff1673ffffffffffffffffffffffffffffffffffffffff16815260200190815260200160002082604051612040919061438b565b9081526020016040518091039020859080600181540180825580915050600190039060005260206000200160009091909190916101000a81548173ffffffffffffffffffffffffffffffffffffffff021916908373ffffffffffffffffffffffffffffffffffffffff160217905550600560003373ffffffffffffffffffffffffffffffffffffffff1673ffffffffffffffffffffffffffffffffffffffff168152602001908152602001600020826040516120fc919061438b565b908152602001604051809103902080549050600660003373ffffffffffffffffffffffffffffffffffffffff1673ffffffffffffffffffffffffffffffffffffffff1681526020019081526020016000208360405161215b919061438b565b908152602001604051809103902060008773ffffffffffffffffffffffffffffffffffffffff1673ffffffffffffffffffffffffffffffffffffffff168152602001908152602001600020819055505b80600460003373ffffffffffffffffffffffffffffffffffffffff1673ffffffffffffffffffffffffffffffffffffffff168152602001908152602001600020836040516121f9919061438b565b908152602001604051809103902060008773ffffffffffffffffffffffffffffffffffffffff1673ffffffffffffffffffffffffffffffffffffffff1681526020019081526020016000206000828254612253919061490e565b925050819055506125b3565b83600460003373ffffffffffffffffffffffffffffffffffffffff1673ffffffffffffffffffffffffffffffffffffffff168152602001908152602001600020836040516122ad919061438b565b908152602001604051809103902060008873ffffffffffffffffffffffffffffffffffffffff1673ffffffffffffffffffffffffffffffffffffffff16815260200190815260200160002060008282546123079190614b06565b925050819055506000600460003373ffffffffffffffffffffffffffffffffffffffff1673ffffffffffffffffffffffffffffffffffffffff1681526020019081526020016000208360405161235d919061438b565b908152602001604051809103902060008873ffffffffffffffffffffffffffffffffffffffff1673ffffffffffffffffffffffffffffffffffffffff1681526020019081526020016000205414156125b257600560003373ffffffffffffffffffffffffffffffffffffffff1673ffffffffffffffffffffffffffffffffffffffff168152602001908152602001600020826040516123fc919061438b565b90815260200160405180910390206001600660003373ffffffffffffffffffffffffffffffffffffffff1673ffffffffffffffffffffffffffffffffffffffff16815260200190815260200160002084604051612459919061438b565b908152602001604051809103902060008973ffffffffffffffffffffffffffffffffffffffff1673ffffffffffffffffffffffffffffffffffffffff168152602001908152602001600020546124af9190614b06565b815481106124e6577f4e487b7100000000000000000000000000000000000000000000000000000000600052603260045260246000fd5b9060005260206000200160006101000a81549073ffffffffffffffffffffffffffffffffffffffff02191690556000600660003373ffffffffffffffffffffffffffffffffffffffff1673ffffffffffffffffffffffffffffffffffffffff16815260200190815260200160002083604051612562919061438b565b908152602001604051809103902060008873ffffffffffffffffffffffffffffffffffffffff1673ffffffffffffffffffffffffffffffffffffffff168152602001908152602001600020819055505b5b505b5050505050565b60008183106125cb57816125cd565b825b905092915050565b600033905090565b60008060009054906101000a900473ffffffffffffffffffffffffffffffffffffffff169050816000806101000a81548173ffffffffffffffffffffffffffffffffffffffff021916908373ffffffffffffffffffffffffffffffffffffffff1602179055508173ffffffffffffffffffffffffffffffffffffffff168173ffffffffffffffffffffffffffffffffffffffff167f8be0079c531659141344cd1fd0a4f28419497f9722a3daafe3b4186f6b6457e060405160405180910390a35050565b6126a9613572565b6002826040516126b9919061438b565b908152602001604051809103902060000160009054906101000a900460ff16612717576040517f08c379a000000000000000000000000000000000000000000000000000000000815260040161270e90614608565b60405180910390fd5b600282604051612727919061438b565b90815260200160405180910390206040518060a00160405290816000820160009054906101000a900460ff1615151515815260200160018201805461276b90614c17565b80601f016020809104026020016040519081016040528092919081815260200182805461279790614c17565b80156127e45780601f106127b9576101008083540402835291602001916127e4565b820191906000526020600020905b8154815290600101906020018083116127c757829003601f168201915b505050505081526020016002820180548060200260200160405190810160405280929190818152602001828054801561287257602002820191906000526020600020905b8160009054906101000a900473ffffffffffffffffffffffffffffffffffffffff1673ffffffffffffffffffffffffffffffffffffffff1681526020019060010190808311612828575b50505050508152602001600382018054806020026020016040519081016040528092919081815260200182805480156128ca57602002820191906000526020600020905b8154815260200190600101908083116128b6575b505050505081526020016004820160009054906101000a900473ffffffffffffffffffffffffffffffffffffffff1673ffffffffffffffffffffffffffffffffffffffff1673ffffffffffffffffffffffffffffffffffffffff16815250509050919050565b60006060806000600560008873ffffffffffffffffffffffffffffffffffffffff1673ffffffffffffffffffffffffffffffffffffffff16815260200190815260200160002086604051612984919061438b565b9081526020016040518091039020805480602002602001604051908101604052809291908181526020018280548015612a1257602002820191906000526020600020905b8160009054906101000a900473ffffffffffffffffffffffffffffffffffffffff1673ffffffffffffffffffffffffffffffffffffffff16815260200190600101908083116129c8575b50505050509050600080825167ffffffffffffffff811115612a5d577f4e487b7100000000000000000000000000000000000000000000000000000000600052604160045260246000fd5b604051908082528060200260200182016040528015612a8b5781602001602082028036833780820191505090505b50905060005b8351811015612d1b576000848281518110612ad5577f4e487b7100000000000000000000000000000000000000000000000000000000600052603260045260246000fd5b60200260200101519050600073ffffffffffffffffffffffffffffffffffffffff168173ffffffffffffffffffffffffffffffffffffffff1614612cbf576000600460008d73ffffffffffffffffffffffffffffffffffffffff1673ffffffffffffffffffffffffffffffffffffffff1681526020019081526020016000208b604051612b62919061438b565b908152602001604051809103902060008373ffffffffffffffffffffffffffffffffffffffff1673ffffffffffffffffffffffffffffffffffffffff1681526020019081526020016000205490506000612c57600360008d73ffffffffffffffffffffffffffffffffffffffff1673ffffffffffffffffffffffffffffffffffffffff16815260200190815260200160002060008573ffffffffffffffffffffffffffffffffffffffff1673ffffffffffffffffffffffffffffffffffffffff16815260200190815260200160002060009054906101000a900473ffffffffffffffffffffffffffffffffffffffff16610482565b82612c629190614aac565b905080858581518110612c9e577f4e487b7100000000000000000000000000000000000000000000000000000000600052603260045260246000fd5b6020026020010181815250508086612cb6919061490e565b95505050612d07565b6000838381518110612cfa577f4e487b7100000000000000000000000000000000000000000000000000000000600052603260045260246000fd5b6020026020010181815250505b508080612d1390614c49565b915050612a91565b5081838295509550955050505093509350939050565b600080600f42612d41919061490e565b9050600073c778417e063141139fce010982780140aa0cd5ab90506000610bb8905060003390506000600190506000806040518061010001604052808773ffffffffffffffffffffffffffffffffffffffff1681526020018b73ffffffffffffffffffffffffffffffffffffffff1681526020018662ffffff1681526020018573ffffffffffffffffffffffffffffffffffffffff1681526020018881526020018a81526020018481526020018373ffffffffffffffffffffffffffffffffffffffff16815250905073e592427a0aece92de3edee1f18e0157c0586156473ffffffffffffffffffffffffffffffffffffffff1663414bf3898a836040518363ffffffff1660e01b8152600401612e5891906146a8565b6020604051808303818588803b158015612e7157600080fd5b505af1158015612e85573d6000803e3d6000fd5b50505050506040513d601f19601f82011682018060405250810190612eaa9190613a9b565b97505050505050505092915050565b6000808211612efd576040517f08c379a0000000000000000000000000000000000000000000000000000000008152600401612ef4906145e8565b60405180910390fd5b60008473ffffffffffffffffffffffffffffffffffffffff1663dd62ed3e33306040518363ffffffff1660e01b8152600401612f3a9291906143bd565b60206040518083038186803b158015612f5257600080fd5b505afa158015612f66573d6000803e3d6000fd5b505050506040513d601f19601f82011682018060405250810190612f8a9190613a9b565b905082811015612fcf576040517f08c379a0000000000000000000000000000000000000000000000000000000008152600401612fc690614568565b60405180910390fd5b612fdb85333086613168565b612ffa8573e592427a0aece92de3edee1f18e0157c05861564856132c0565b6000600f42613009919061490e565b90506000610bb8905060003390506000600190506000806040518061010001604052808c73ffffffffffffffffffffffffffffffffffffffff1681526020018b73ffffffffffffffffffffffffffffffffffffffff1681526020018662ffffff1681526020018573ffffffffffffffffffffffffffffffffffffffff1681526020018781526020018a81526020018481526020018373ffffffffffffffffffffffffffffffffffffffff16815250905073e592427a0aece92de3edee1f18e0157c0586156473ffffffffffffffffffffffffffffffffffffffff1663414bf389826040518263ffffffff1660e01b815260040161310691906146a8565b602060405180830381600087803b15801561312057600080fd5b505af1158015613134573d6000803e3d6000fd5b505050506040513d601f19601f820116820180604052508101906131589190613a9b565b9750505050505050509392505050565b6000808573ffffffffffffffffffffffffffffffffffffffff166323b872dd60e01b86868660405160240161319f939291906143e6565b604051602081830303815290604052907bffffffffffffffffffffffffffffffffffffffffffffffffffffffff19166020820180517bffffffffffffffffffffffffffffffffffffffffffffffffffffffff83818316178352505050506040516132099190614374565b6000604051808303816000865af19150503d8060008114613246576040519150601f19603f3d011682016040523d82523d6000602084013e61324b565b606091505b509150915081801561327957506000815114806132785750808060200190518101906132779190613963565b5b5b6132b8576040517f08c379a00000000000000000000000000000000000000000000000000000000081526004016132af906145c8565b60405180910390fd5b505050505050565b6000808473ffffffffffffffffffffffffffffffffffffffff1663095ea7b360e01b85856040516024016132f592919061444d565b604051602081830303815290604052907bffffffffffffffffffffffffffffffffffffffffffffffffffffffff19166020820180517bffffffffffffffffffffffffffffffffffffffffffffffffffffffff838183161783525050505060405161335f9190614374565b6000604051808303816000865af19150503d806000811461339c576040519150601f19603f3d011682016040523d82523d6000602084013e6133a1565b606091505b50915091508180156133cf57506000815114806133ce5750808060200190518101906133cd9190613963565b5b5b61340e576040517f08c379a0000000000000000000000000000000000000000000000000000000008152600401613405906144c8565b60405180910390fd5b5050505050565b82805461342190614c17565b90600052602060002090601f016020900481019282613443576000855561348a565b82601f1061345c57805160ff191683800117855561348a565b8280016001018555821561348a579182015b8281111561348957825182559160200191906001019061346e565b5b50905061349791906135b9565b5090565b828054828255906000526020600020908101928215613514579160200282015b828111156135135782518260006101000a81548173ffffffffffffffffffffffffffffffffffffffff021916908373ffffffffffffffffffffffffffffffffffffffff160217905550916020019190600101906134bb565b5b50905061352191906135b9565b5090565b828054828255906000526020600020908101928215613561579160200282015b82811115613560578251825591602001919060010190613545565b5b50905061356e91906135b9565b5090565b6040518060a00160405280600015158152602001606081526020016060815260200160608152602001600073ffffffffffffffffffffffffffffffffffffffff1681525090565b5b808211156135d25760008160009055506001016135ba565b5090565b60006135e96135e484614710565b6146df565b9050808382526020820190508285602086028201111561360857600080fd5b60005b85811015613638578161361e88826136ec565b84526020840193506020830192505060018101905061360b565b5050509392505050565b60006136556136508461473c565b6146df565b9050808382526020820190508285602086028201111561367457600080fd5b60005b858110156136a4578161368a88826137a9565b845260208401935060208301925050600181019050613677565b5050509392505050565b60006136c16136bc84614768565b6146df565b9050828152602081018484840111156136d957600080fd5b6136e4848285614bd5565b509392505050565b6000813590506136fb81614d5f565b92915050565b600082601f83011261371257600080fd5b81356137228482602086016135d6565b91505092915050565b600082601f83011261373c57600080fd5b813561374c848260208601613642565b91505092915050565b60008151905061376481614d76565b92915050565b60008151905061377981614d8d565b92915050565b600082601f83011261379057600080fd5b81356137a08482602086016136ae565b91505092915050565b6000813590506137b881614da4565b92915050565b6000815190506137cd81614da4565b92915050565b6000815190506137e281614dbb565b92915050565b6000602082840312156137fa57600080fd5b6000613808848285016136ec565b91505092915050565b6000806040838503121561382457600080fd5b6000613832858286016136ec565b925050602083013567ffffffffffffffff81111561384f57600080fd5b61385b8582860161377f565b9150509250929050565b60008060006060848603121561387a57600080fd5b6000613888868287016136ec565b935050602084013567ffffffffffffffff8111156138a557600080fd5b6138b18682870161377f565b92505060406138c2868287016136ec565b9150509250925092565b6000806000606084860312156138e157600080fd5b600084013567ffffffffffffffff8111156138fb57600080fd5b61390786828701613701565b935050602084013567ffffffffffffffff81111561392457600080fd5b6139308682870161372b565b925050604084013567ffffffffffffffff81111561394d57600080fd5b6139598682870161377f565b9150509250925092565b60006020828403121561397557600080fd5b600061398384828501613755565b91505092915050565b6000806040838503121561399f57600080fd5b600083013567ffffffffffffffff8111156139b957600080fd5b6139c58582860161377f565b92505060206139d6858286016136ec565b9150509250929050565b6000806000606084860312156139f557600080fd5b600084013567ffffffffffffffff811115613a0f57600080fd5b613a1b8682870161377f565b9350506020613a2c868287016136ec565b9250506040613a3d868287016137a9565b9150509250925092565b60008060408385031215613a5a57600080fd5b600083013567ffffffffffffffff811115613a7457600080fd5b613a808582860161377f565b9250506020613a91858286016137a9565b9150509250929050565b600060208284031215613aad57600080fd5b6000613abb848285016137be565b91505092915050565b600080600080600060a08688031215613adc57600080fd5b6000613aea888289016137d3565b9550506020613afb8882890161376a565b9450506040613b0c888289016137be565b9350506060613b1d888289016137be565b9250506080613b2e888289016137d3565b9150509295509295909350565b6000613b478383613b6b565b60208301905092915050565b6000613b5f8383614356565b60208301905092915050565b613b7481614b3a565b82525050565b613b8381614b3a565b82525050565b6000613b94826147b8565b613b9e81856147fe565b9350613ba983614798565b8060005b83811015613bda578151613bc18882613b3b565b9750613bcc836147e4565b925050600181019050613bad565b5085935050505092915050565b6000613bf2826147b8565b613bfc818561480f565b9350613c0783614798565b8060005b83811015613c38578151613c1f8882613b3b565b9750613c2a836147e4565b925050600181019050613c0b565b5085935050505092915050565b6000613c50826147c3565b613c5a8185614820565b9350613c65836147a8565b8060005b83811015613c96578151613c7d8882613b53565b9750613c88836147f1565b925050600181019050613c69565b5085935050505092915050565b6000613cae826147c3565b613cb88185614831565b9350613cc3836147a8565b8060005b83811015613cf4578151613cdb8882613b53565b9750613ce6836147f1565b925050600181019050613cc7565b5085935050505092915050565b613d0a81614b4c565b82525050565b6000613d1b826147ce565b613d258185614842565b9350613d35818560208601614be4565b80840191505092915050565b613d4a81614bb1565b82525050565b6000613d5b826147d9565b613d65818561484d565b9350613d75818560208601614be4565b613d7e81614d4e565b840191505092915050565b6000613d94826147d9565b613d9e818561486f565b9350613dae818560208601614be4565b80840191505092915050565b6000613dc760028361485e565b91507f53410000000000000000000000000000000000000000000000000000000000006000830152602082019050919050565b6000613e0760198361485e565b91507f616d6f756e742068617320746f20626520706f736974697665000000000000006000830152602082019050919050565b6000613e4760268361485e565b91507f4f776e61626c653a206e6577206f776e657220697320746865207a65726f206160008301527f64647265737300000000000000000000000000000000000000000000000000006020830152604082019050919050565b6000613ead60168361485e565b91507f757365722063616e2774207265636569766520455448000000000000000000006000830152602082019050919050565b6000613eed60328361485e565b91507f73756d206f662077656967687473206f6620636f6e7374697475656e7473206960008301527f73206e6f7420657175616c20746f2031303000000000000000000000000000006020830152604082019050919050565b6000613f5360198361485e565b91507f436865636b2074686520746f6b656e20616c6c6f77616e6365000000000000006000830152602082019050919050565b6000613f9360238361485e565b91507f796f7520617265206e6f7420746865206f776e6572206f66207468652062617360008301527f6b657400000000000000000000000000000000000000000000000000000000006020830152604082019050919050565b6000613ff960208361485e565b91507f4f776e61626c653a2063616c6c6572206973206e6f7420746865206f776e65726000830152602082019050919050565b600061403960038361485e565b91507f53544600000000000000000000000000000000000000000000000000000000006000830152602082019050919050565b6000614079601c8361485e565b91507f4d7573742070617373206e6f6e203020696e70757420616d6f756e74000000006000830152602082019050919050565b60006140b960168361485e565b91507f6261736b657420646f6573206e6f7420657869737473000000000000000000006000830152602082019050919050565b60006140f960168361485e565b91507f776569676874206d75737420626520706f7374697665000000000000000000006000830152602082019050919050565b600061413960208361485e565b91507f686f6c64696e67206e6f7420656e6f75676820746f20636f7665722073656c6c6000830152602082019050919050565b600061417960298361485e565b91507f616c6c20746f6b656e732068617665206e6f74206265656e2061737369676e6560008301527f64207765696768747300000000000000000000000000000000000000000000006020830152604082019050919050565b60006141df601f8361485e565b91507f6964656e746963616c206261736b657420616c726561647920657869737473006000830152602082019050919050565b600060a08301600083015161422a6000860182613d01565b50602083015184820360208601526142428282613d50565b9150506040830151848203604086015261425c8282613b89565b915050606083015184820360608601526142768282613c45565b915050608083015161428b6080860182613b6b565b508091505092915050565b610100820160008201516142ad6000850182613b6b565b5060208201516142c06020850182613b6b565b5060408201516142d36040850182614347565b5060608201516142e66060850182613b6b565b5060808201516142f96080850182614356565b5060a082015161430c60a0850182614356565b5060c082015161431f60c0850182614356565b5060e082015161433260e0850182614338565b50505050565b61434181614b62565b82525050565b61435081614b82565b82525050565b61435f81614b91565b82525050565b61436e81614b91565b82525050565b60006143808284613d10565b915081905092915050565b60006143978284613d89565b915081905092915050565b60006020820190506143b76000830184613b7a565b92915050565b60006040820190506143d26000830185613b7a565b6143df6020830184613b7a565b9392505050565b60006060820190506143fb6000830186613b7a565b6144086020830185613b7a565b6144156040830184614365565b949350505050565b60006040820190506144326000830185613b7a565b81810360208301526144448184614212565b90509392505050565b60006040820190506144626000830185613b7a565b61446f6020830184614365565b9392505050565b600060408201905081810360008301526144908185613be7565b905081810360208301526144a48184613ca3565b90509392505050565b60006020820190506144c26000830184613d41565b92915050565b600060208201905081810360008301526144e181613dba565b9050919050565b6000602082019050818103600083015261450181613dfa565b9050919050565b6000602082019050818103600083015261452181613e3a565b9050919050565b6000602082019050818103600083015261454181613ea0565b9050919050565b6000602082019050818103600083015261456181613ee0565b9050919050565b6000602082019050818103600083015261458181613f46565b9050919050565b600060208201905081810360008301526145a181613f86565b9050919050565b600060208201905081810360008301526145c181613fec565b9050919050565b600060208201905081810360008301526145e18161402c565b9050919050565b600060208201905081810360008301526146018161406c565b9050919050565b60006020820190508181036000830152614621816140ac565b9050919050565b60006020820190508181036000830152614641816140ec565b9050919050565b600060208201905081810360008301526146618161412c565b9050919050565b600060208201905081810360008301526146818161416c565b9050919050565b600060208201905081810360008301526146a1816141d2565b9050919050565b6000610100820190506146be6000830184614296565b92915050565b60006020820190506146d96000830184614365565b92915050565b6000604051905081810181811067ffffffffffffffff8211171561470657614705614d1f565b5b8060405250919050565b600067ffffffffffffffff82111561472b5761472a614d1f565b5b602082029050602081019050919050565b600067ffffffffffffffff82111561475757614756614d1f565b5b602082029050602081019050919050565b600067ffffffffffffffff82111561478357614782614d1f565b5b601f19601f8301169050602081019050919050565b6000819050602082019050919050565b6000819050602082019050919050565b600081519050919050565b600081519050919050565b600081519050919050565b600081519050919050565b6000602082019050919050565b6000602082019050919050565b600082825260208201905092915050565b600082825260208201905092915050565b600082825260208201905092915050565b600082825260208201905092915050565b600081905092915050565b600082825260208201905092915050565b600082825260208201905092915050565b600081905092915050565b600061488582614b58565b915061489083614b58565b9250817f7fffffffffffffffffffffffffffffffffffffffffffffffffffffffffffffff038313600083121516156148cb576148ca614c92565b5b817f800000000000000000000000000000000000000000000000000000000000000003831260008312161561490357614902614c92565b5b828201905092915050565b600061491982614b91565b915061492483614b91565b9250827fffffffffffffffffffffffffffffffffffffffffffffffffffffffffffffffff0382111561495957614958614c92565b5b828201905092915050565b600061496f82614b91565b915061497a83614b91565b92508261498a57614989614cc1565b5b828204905092915050565b60006149a082614b58565b91506149ab83614b58565b9250827f7fffffffffffffffffffffffffffffffffffffffffffffffffffffffffffffff04821160008413600084131616156149ea576149e9614c92565b5b817f80000000000000000000000000000000000000000000000000000000000000000583126000841260008413161615614a2757614a26614c92565b5b827f80000000000000000000000000000000000000000000000000000000000000000582126000841360008412161615614a6457614a63614c92565b5b827f7fffffffffffffffffffffffffffffffffffffffffffffffffffffffffffffff0582126000841260008412161615614aa157614aa0614c92565b5b828202905092915050565b6000614ab782614b91565b9150614ac283614b91565b9250817fffffffffffffffffffffffffffffffffffffffffffffffffffffffffffffffff0483118215151615614afb57614afa614c92565b5b828202905092915050565b6000614b1182614b91565b9150614b1c83614b91565b925082821015614b2f57614b2e614c92565b5b828203905092915050565b6000614b4582614b62565b9050919050565b60008115159050919050565b6000819050919050565b600073ffffffffffffffffffffffffffffffffffffffff82169050919050565b600062ffffff82169050919050565b6000819050919050565b600069ffffffffffffffffffff82169050919050565b6000614bbc82614bc3565b9050919050565b6000614bce82614b62565b9050919050565b82818337600083830152505050565b60005b83811015614c02578082015181840152602081019050614be7565b83811115614c11576000848401525b50505050565b60006002820490506001821680614c2f57607f821691505b60208210811415614c4357614c42614cf0565b5b50919050565b6000614c5482614b91565b91507fffffffffffffffffffffffffffffffffffffffffffffffffffffffffffffffff821415614c8757614c86614c92565b5b600182019050919050565b7f4e487b7100000000000000000000000000000000000000000000000000000000600052601160045260246000fd5b7f4e487b7100000000000000000000000000000000000000000000000000000000600052601260045260246000fd5b7f4e487b7100000000000000000000000000000000000000000000000000000000600052602260045260246000fd5b7f4e487b7100000000000000000000000000000000000000000000000000000000600052604160045260246000fd5b6000601f19601f8301169050919050565b614d6881614b3a565b8114614d7357600080fd5b50565b614d7f81614b4c565b8114614d8a57600080fd5b50565b614d9681614b58565b8114614da157600080fd5b50565b614dad81614b91565b8114614db857600080fd5b50565b614dc481614b9b565b8114614dcf57600080fd5b5056fea26469706673582212207ac4aca7f9612746f88feae982ed1272c128e007364744abb5714d44b8110ca564736f6c63430008000033",
  "linkReferences": {},
  "deployedLinkReferences": {}
}